{
  "_format": "hh-sol-artifact-1",
  "contractName": "ElectionProofRegistry",
  "sourceName": "contracts/ElectionProofRegistry.sol",
  "abi": [
    {
      "inputs": [],
      "stateMutability": "nonpayable",
      "type": "constructor"
    },
    {
      "anonymous": false,
      "inputs": [
        {
          "indexed": true,
          "internalType": "string",
          "name": "electionId",
          "type": "string"
        },
        {
          "indexed": true,
          "internalType": "uint256",
          "name": "batchIndex",
          "type": "uint256"
        },
        {
          "indexed": false,
          "internalType": "bytes32",
          "name": "merkleRoot",
          "type": "bytes32"
        },
        {
          "indexed": false,
          "internalType": "uint256",
          "name": "voteCount",
          "type": "uint256"
        },
        {
          "indexed": false,
          "internalType": "uint256",
          "name": "cumulativeVoteCount",
          "type": "uint256"
        },
        {
          "indexed": false,
          "internalType": "uint256",
          "name": "anchoredAt",
          "type": "uint256"
        }
      ],
      "name": "BatchAnchored",
      "type": "event"
    },
    {
      "anonymous": false,
      "inputs": [
        {
          "indexed": true,
          "internalType": "string",
          "name": "electionId",
          "type": "string"
        },
        {
          "indexed": false,
          "internalType": "bytes32",
          "name": "finalMerkleRoot",
          "type": "bytes32"
        },
        {
          "indexed": false,
          "internalType": "bytes32",
          "name": "tallyHash",
          "type": "bytes32"
        },
        {
          "indexed": false,
          "internalType": "uint256",
          "name": "totalVotes",
          "type": "uint256"
        },
        {
          "indexed": false,
          "internalType": "uint256",
          "name": "finalizedAt",
          "type": "uint256"
        }
      ],
      "name": "ElectionFinalized",
      "type": "event"
    },
    {
      "inputs": [
        {
          "internalType": "string",
          "name": "electionId",
          "type": "string"
        },
        {
          "internalType": "uint256",
          "name": "batchIndex",
          "type": "uint256"
        },
        {
          "internalType": "bytes32",
          "name": "merkleRoot",
          "type": "bytes32"
        },
        {
          "internalType": "uint256",
          "name": "voteCount",
          "type": "uint256"
        },
        {
          "internalType": "uint256",
          "name": "cumulativeVoteCount",
          "type": "uint256"
        }
      ],
      "name": "anchorBatch",
      "outputs": [],
      "stateMutability": "nonpayable",
      "type": "function"
    },
    {
      "inputs": [
        {
          "internalType": "string",
          "name": "electionId",
          "type": "string"
        },
        {
          "internalType": "bytes32",
          "name": "finalMerkleRoot",
          "type": "bytes32"
        },
        {
          "internalType": "bytes32",
          "name": "tallyHash",
          "type": "bytes32"
        },
        {
          "internalType": "uint256",
          "name": "totalVotes",
          "type": "uint256"
        }
      ],
      "name": "finalizeElection",
      "outputs": [],
      "stateMutability": "nonpayable",
      "type": "function"
    },
    {
      "inputs": [
        {
          "internalType": "string",
          "name": "electionId",
          "type": "string"
        },
        {
          "internalType": "uint256",
          "name": "batchIndex",
          "type": "uint256"
        }
      ],
      "name": "getBatchAnchor",
      "outputs": [
        {
          "internalType": "bytes32",
          "name": "merkleRoot",
          "type": "bytes32"
        },
        {
          "internalType": "uint256",
          "name": "voteCount",
          "type": "uint256"
        },
        {
          "internalType": "uint256",
          "name": "cumulativeVoteCount",
          "type": "uint256"
        },
        {
          "internalType": "uint256",
          "name": "anchoredAt",
          "type": "uint256"
        }
      ],
      "stateMutability": "view",
      "type": "function"
    },
    {
      "inputs": [
        {
          "internalType": "string",
          "name": "electionId",
          "type": "string"
        }
      ],
      "name": "getFinalProof",
      "outputs": [
        {
          "internalType": "bytes32",
          "name": "finalMerkleRoot",
          "type": "bytes32"
        },
        {
          "internalType": "bytes32",
          "name": "tallyHash",
          "type": "bytes32"
        },
        {
          "internalType": "uint256",
          "name": "totalVotes",
          "type": "uint256"
        },
        {
          "internalType": "uint256",
          "name": "finalizedAt",
          "type": "uint256"
        }
      ],
      "stateMutability": "view",
      "type": "function"
    },
    {
      "inputs": [
        {
          "internalType": "bytes32",
          "name": "electionKey",
          "type": "bytes32"
        }
      ],
      "name": "isFinalized",
      "outputs": [
        {
          "internalType": "bool",
          "name": "finalized",
          "type": "bool"
        }
      ],
      "stateMutability": "view",
      "type": "function"
    },
    {
      "inputs": [
        {
          "internalType": "bytes32",
          "name": "electionKey",
          "type": "bytes32"
        }
      ],
      "name": "latestBatchIndex",
      "outputs": [
        {
          "internalType": "uint256",
          "name": "batchCount",
          "type": "uint256"
        }
      ],
      "stateMutability": "view",
      "type": "function"
    },
    {
      "inputs": [],
      "name": "owner",
      "outputs": [
        {
          "internalType": "address",
          "name": "",
          "type": "address"
        }
      ],
      "stateMutability": "view",
      "type": "function"
    }
  ],
  "bytecode": "0x60a060405234801561001057600080fd5b503373ffffffffffffffffffffffffffffffffffffffff1660808173ffffffffffffffffffffffffffffffffffffffff168152505060805161149061006e6000396000818161028c015281816102b0015261077a01526114906000f3fe608060405234801561001057600080fd5b506004361061007d5760003560e01c80638da5cb5b1161005b5780638da5cb5b14610115578063966e960814610133578063d59740991461014f578063f17f3a03146101825761007d565b806308c3697b146100825780636f4dba19146100b55780637f8d429e146100e5575b600080fd5b61009c60048036038101906100979190610af1565b61019e565b6040516100ac9493929190610b79565b60405180910390f35b6100cf60048036038101906100ca9190610bea565b610252565b6040516100dc9190610c17565b60405180910390f35b6100ff60048036038101906100fa9190610bea565b61026a565b60405161010c9190610c4d565b60405180910390f35b61011d61028a565b60405161012a9190610ca9565b60405180910390f35b61014d60048036038101906101489190610cc4565b6102ae565b005b61016960048036038101906101649190610d5e565b6106d4565b6040516101799493929190610dab565b60405180910390f35b61019c60048036038101906101979190610df0565b610778565b005b600080600080600087876040516020016101b9929190610eb7565b60405160208183030381529060405280519060200120905060008060008381526020019081526020016000206000888152602001908152602001600020604051806080016040529081600082015481526020016001820154815260200160028201548152602001600382015481525050905080600001518160200151826040015183606001519550955095509550505093509350935093565b60016020528060005260406000206000915090505481565b60036020528060005260406000206000915054906101000a900460ff1681565b7f000000000000000000000000000000000000000000000000000000000000000081565b7f000000000000000000000000000000000000000000000000000000000000000073ffffffffffffffffffffffffffffffffffffffff163373ffffffffffffffffffffffffffffffffffffffff161461033c576040517f08c379a000000000000000000000000000000000000000000000000000000000815260040161033390610f53565b60405180910390fd5b60008686905011610382576040517f08c379a000000000000000000000000000000000000000000000000000000000815260040161037990610fbf565b60405180910390fd5b600084116103c5576040517f08c379a00000000000000000000000000000000000000000000000000000000081526004016103bc90611051565b60405180910390fd5b6000801b830361040a576040517f08c379a0000000000000000000000000000000000000000000000000000000008152600401610401906110bd565b60405180910390fd5b6000821161044d576040517f08c379a00000000000000000000000000000000000000000000000000000000081526004016104449061114f565b60405180910390fd5b81811015610490576040517f08c379a0000000000000000000000000000000000000000000000000000000008152600401610487906111bb565b60405180910390fd5b600086866040516020016104a5929190610eb7565b6040516020818303038152906040528051906020012090506003600082815260200190815260200160002060009054906101000a900460ff161561051e576040517f08c379a000000000000000000000000000000000000000000000000000000000815260040161051590611227565b60405180910390fd5b600080600083815260200190815260200160002060008781526020019081526020016000206003015414610587576040517f08c379a000000000000000000000000000000000000000000000000000000000815260040161057e90611293565b60405180910390fd5b6000600160008381526020019081526020016000205490506001816105ac91906112e2565b86146105ed576040517f08c379a00000000000000000000000000000000000000000000000000000000081526004016105e490611362565b60405180910390fd5b604051806080016040528086815260200185815260200184815260200142815250600080848152602001908152602001600020600088815260200190815260200160002060008201518160000155602082015181600101556040820151816002015560608201518160030155905050856001600084815260200190815260200160002081905550858888604051610685929190610eb7565b60405180910390207f792520b6add6220213a375e18a55866ed663f9eb8cae674dd8a1391a5db3a13b878787426040516106c29493929190610b79565b60405180910390a35050505050505050565b600080600080600086866040516020016106ef929190610eb7565b604051602081830303815290604052805190602001209050600060026000838152602001908152602001600020604051806080016040529081600082015481526020016001820154815260200160028201548152602001600382015481525050905080600001518160200151826040015183606001519550955095509550505092959194509250565b7f000000000000000000000000000000000000000000000000000000000000000073ffffffffffffffffffffffffffffffffffffffff163373ffffffffffffffffffffffffffffffffffffffff1614610806576040517f08c379a00000000000000000000000000000000000000000000000000000000081526004016107fd90610f53565b60405180910390fd5b6000858590501161084c576040517f08c379a000000000000000000000000000000000000000000000000000000000815260040161084390610fbf565b60405180910390fd5b6000801b8303610891576040517f08c379a0000000000000000000000000000000000000000000000000000000008152600401610888906113ce565b60405180910390fd5b6000801b82036108d6576040517f08c379a00000000000000000000000000000000000000000000000000000000081526004016108cd9061143a565b60405180910390fd5b600085856040516020016108eb929190610eb7565b6040516020818303038152906040528051906020012090506003600082815260200190815260200160002060009054906101000a900460ff1615610964576040517f08c379a000000000000000000000000000000000000000000000000000000000815260040161095b90611227565b60405180910390fd5b604051806080016040528085815260200184815260200183815260200142815250600260008381526020019081526020016000206000820151816000015560208201518160010155604082015181600201556060820151816003015590505060016003600083815260200190815260200160002060006101000a81548160ff02191690831515021790555085856040516109ff929190610eb7565b60405180910390207f90f0da59c1b5656b8a7a57fd8c9fd101bc7e9e7bc8650cdf42b526702bb78fd885858542604051610a3c9493929190610dab565b60405180910390a2505050505050565b600080fd5b600080fd5b600080fd5b600080fd5b600080fd5b60008083601f840112610a7b57610a7a610a56565b5b8235905067ffffffffffffffff811115610a9857610a97610a5b565b5b602083019150836001820283011115610ab457610ab3610a60565b5b9250929050565b6000819050919050565b610ace81610abb565b8114610ad957600080fd5b50565b600081359050610aeb81610ac5565b92915050565b600080600060408486031215610b0a57610b09610a4c565b5b600084013567ffffffffffffffff811115610b2857610b27610a51565b5b610b3486828701610a65565b93509350506020610b4786828701610adc565b9150509250925092565b6000819050919050565b610b6481610b51565b82525050565b610b7381610abb565b82525050565b6000608082019050610b8e6000830187610b5b565b610b9b6020830186610b6a565b610ba86040830185610b6a565b610bb56060830184610b6a565b95945050505050565b610bc781610b51565b8114610bd257600080fd5b50565b600081359050610be481610bbe565b92915050565b600060208284031215610c0057610bff610a4c565b5b6000610c0e84828501610bd5565b91505092915050565b6000602082019050610c2c6000830184610b6a565b92915050565b60008115159050919050565b610c4781610c32565b82525050565b6000602082019050610c626000830184610c3e565b92915050565b600073ffffffffffffffffffffffffffffffffffffffff82169050919050565b6000610c9382610c68565b9050919050565b610ca381610c88565b82525050565b6000602082019050610cbe6000830184610c9a565b92915050565b60008060008060008060a08789031215610ce157610ce0610a4c565b5b600087013567ffffffffffffffff811115610cff57610cfe610a51565b5b610d0b89828a01610a65565b96509650506020610d1e89828a01610adc565b9450506040610d2f89828a01610bd5565b9350506060610d4089828a01610adc565b9250506080610d5189828a01610adc565b9150509295509295509295565b60008060208385031215610d7557610d74610a4c565b5b600083013567ffffffffffffffff811115610d9357610d92610a51565b5b610d9f85828601610a65565b92509250509250929050565b6000608082019050610dc06000830187610b5b565b610dcd6020830186610b5b565b610dda6040830185610b6a565b610de76060830184610b6a565b95945050505050565b600080600080600060808688031215610e0c57610e0b610a4c565b5b600086013567ffffffffffffffff811115610e2a57610e29610a51565b5b610e3688828901610a65565b95509550506020610e4988828901610bd5565b9350506040610e5a88828901610bd5565b9250506060610e6b88828901610adc565b9150509295509295909350565b600081905092915050565b82818337600083830152505050565b6000610e9e8385610e78565b9350610eab838584610e83565b82840190509392505050565b6000610ec4828486610e92565b91508190509392505050565b600082825260208201905092915050565b7f4f6e6c79206f776e65722063616e20706572666f726d2074686973206163746960008201527f6f6e000000000000000000000000000000000000000000000000000000000000602082015250565b6000610f3d602283610ed0565b9150610f4882610ee1565b604082019050919050565b60006020820190508181036000830152610f6c81610f30565b9050919050565b7f456c656374696f6e204944206973207265717569726564000000000000000000600082015250565b6000610fa9601783610ed0565b9150610fb482610f73565b602082019050919050565b60006020820190508181036000830152610fd881610f9c565b9050919050565b7f426174636820696e646578206d7573742062652067726561746572207468616e60008201527f207a65726f000000000000000000000000000000000000000000000000000000602082015250565b600061103b602583610ed0565b915061104682610fdf565b604082019050919050565b6000602082019050818103600083015261106a8161102e565b9050919050565b7f4d65726b6c6520726f6f74206973207265717569726564000000000000000000600082015250565b60006110a7601783610ed0565b91506110b282611071565b602082019050919050565b600060208201905081810360008301526110d68161109a565b9050919050565b7f566f746520636f756e74206d7573742062652067726561746572207468616e2060008201527f7a65726f00000000000000000000000000000000000000000000000000000000602082015250565b6000611139602483610ed0565b9150611144826110dd565b604082019050919050565b600060208201905081810360008301526111688161112c565b9050919050565b7f496e76616c69642063756d756c617469766520766f746520636f756e74000000600082015250565b60006111a5601d83610ed0565b91506111b08261116f565b602082019050919050565b600060208201905081810360008301526111d481611198565b9050919050565b7f456c656374696f6e20616c72656164792066696e616c697a6564000000000000600082015250565b6000611211601a83610ed0565b915061121c826111db565b602082019050919050565b6000602082019050818103600083015261124081611204565b9050919050565b7f426174636820616c726561647920616e63686f72656400000000000000000000600082015250565b600061127d601683610ed0565b915061128882611247565b602082019050919050565b600060208201905081810360008301526112ac81611270565b9050919050565b7f4e487b7100000000000000000000000000000000000000000000000000000000600052601160045260246000fd5b60006112ed82610abb565b91506112f883610abb565b92508282019050808211156113105761130f6112b3565b5b92915050565b7f426174636820696e646578206d7573742062652073657175656e7469616c0000600082015250565b600061134c601e83610ed0565b915061135782611316565b602082019050919050565b6000602082019050818103600083015261137b8161133f565b9050919050565b7f46696e616c204d65726b6c6520726f6f74206973207265717569726564000000600082015250565b60006113b8601d83610ed0565b91506113c382611382565b602082019050919050565b600060208201905081810360008301526113e7816113ab565b9050919050565b7f54616c6c79206861736820697320726571756972656400000000000000000000600082015250565b6000611424601683610ed0565b915061142f826113ee565b602082019050919050565b6000602082019050818103600083015261145381611417565b905091905056fea2646970667358221220881d5d0195a24eede62ecb66354da831f8419f60ea90de24db3176d651a4c94064736f6c63430008180033",
  "linkReferences": {},
  "deployedLinkReferences": {}
}